{
  "_format": "hh-sol-artifact-1",
  "contractName": "SimpleStorage",
  "sourceName": "contracts/SimpleStorage.sol",
  "abi": [
    {
      "inputs": [],
      "stateMutability": "nonpayable",
      "type": "constructor"
    },
    {
      "anonymous": false,
      "inputs": [
        {
          "indexed": false,
          "internalType": "string",
          "name": "newMessage",
          "type": "string"
        }
      ],
      "name": "MessageUpdated",
      "type": "event"
    },
    {
      "anonymous": false,
      "inputs": [
        {
          "indexed": true,
          "internalType": "address",
          "name": "previousOwner",
          "type": "address"
        },
        {
          "indexed": true,
          "internalType": "address",
          "name": "newOwner",
          "type": "address"
        }
      ],
      "name": "OwnershipTransferred",
      "type": "event"
    },
    {
      "anonymous": false,
      "inputs": [
        {
          "indexed": false,
          "internalType": "uint256",
          "name": "newValue",
          "type": "uint256"
        }
      ],
      "name": "ValueUpdated",
      "type": "event"
    },
    {
      "inputs": [],
      "name": "getMessage",
      "outputs": [
        {
          "internalType": "string",
          "name": "",
          "type": "string"
        }
      ],
      "stateMutability": "view",
      "type": "function"
    },
    {
      "inputs": [],
      "name": "getValue",
      "outputs": [
        {
          "internalType": "uint256",
          "name": "",
          "type": "uint256"
        }
      ],
      "stateMutability": "view",
      "type": "function"
    },
    {
      "inputs": [],
      "name": "owner",
      "outputs": [
        {
          "internalType": "address",
          "name": "",
          "type": "address"
        }
      ],
      "stateMutability": "view",
      "type": "function"
    },
    {
      "inputs": [
        {
          "internalType": "string",
          "name": "_message",
          "type": "string"
        }
      ],
      "name": "setMessage",
      "outputs": [],
      "stateMutability": "nonpayable",
      "type": "function"
    },
    {
      "inputs": [
        {
          "internalType": "uint256",
          "name": "_value",
          "type": "uint256"
        }
      ],
      "name": "setValue",
      "outputs": [],
      "stateMutability": "nonpayable",
      "type": "function"
    },
    {
      "inputs": [
        {
          "internalType": "address",
          "name": "newOwner",
          "type": "address"
        }
      ],
      "name": "transferOwnership",
      "outputs": [],
      "stateMutability": "nonpayable",
      "type": "function"
    }
  ],
  "bytecode": "0x6080604052348015600e575f5ffd5b50600180546001600160a01b031916331790556106858061002e5f395ff3fe608060405234801561000f575f5ffd5b506004361061006f575f3560e01c80638da5cb5b1161004d5780638da5cb5b146100b0578063ce6d41de146100db578063f2fde38b146100f0575f5ffd5b80632096525514610073578063368b877214610088578063552410771461009d575b5f5ffd5b5f546040519081526020015b60405180910390f35b61009b6100963660046103ce565b610103565b005b61009b6100ab366004610481565b610199565b6001546100c3906001600160a01b031681565b6040516001600160a01b03909116815260200161007f565b6100e3610217565b60405161007f9190610498565b61009b6100fe3660046104e3565b6102a7565b6001546001600160a01b031633146101525760405162461bcd60e51b815260206004820152600d60248201526c2737ba103a34329037bbb732b960991b60448201526064015b60405180910390fd5b600261015e8282610594565b507f8fae638bf5c6396194a6bb16601c4035a07fa48191638ff4102f0d96f14cfefb8160405161018e9190610498565b60405180910390a150565b6001546001600160a01b031633146101e35760405162461bcd60e51b815260206004820152600d60248201526c2737ba103a34329037bbb732b960991b6044820152606401610149565b5f8190556040518181527f4273d0736f60e0dedfe745e86718093d8ec8646ebd2a60cd60643eeced5658119060200161018e565b60606002805461022690610510565b80601f016020809104026020016040519081016040528092919081815260200182805461025290610510565b801561029d5780601f106102745761010080835404028352916020019161029d565b820191905f5260205f20905b81548152906001019060200180831161028057829003601f168201915b5050505050905090565b6001546001600160a01b031633146102f15760405162461bcd60e51b815260206004820152600d60248201526c2737ba103a34329037bbb732b960991b6044820152606401610149565b6001600160a01b0381166103475760405162461bcd60e51b815260206004820152600f60248201527f496e76616c6964206164647265737300000000000000000000000000000000006044820152606401610149565b6001546040516001600160a01b038084169216907f8be0079c531659141344cd1fd0a4f28419497f9722a3daafe3b4186f6b6457e0905f90a3600180547fffffffffffffffffffffffff0000000000000000000000000000000000000000166001600160a01b0392909216919091179055565b634e487b7160e01b5f52604160045260245ffd5b5f602082840312156103de575f5ffd5b813567ffffffffffffffff8111156103f4575f5ffd5b8201601f81018413610404575f5ffd5b803567ffffffffffffffff81111561041e5761041e6103ba565b604051601f8201601f19908116603f0116810167ffffffffffffffff8111828210171561044d5761044d6103ba565b604052818152828201602001861015610464575f5ffd5b816020840160208301375f91810160200191909152949350505050565b5f60208284031215610491575f5ffd5b5035919050565b602081525f82518060208401525f5b818110156104c457602081860181015160408684010152016104a7565b505f604082850101526040601f19601f83011684010191505092915050565b5f602082840312156104f3575f5ffd5b81356001600160a01b0381168114610509575f5ffd5b9392505050565b600181811c9082168061052457607f821691505b60208210810361054257634e487b7160e01b5f52602260045260245ffd5b50919050565b601f82111561058f57805f5260205f20601f840160051c8101602085101561056d5750805b601f840160051c820191505b8181101561058c575f8155600101610579565b50505b505050565b815167ffffffffffffffff8111156105ae576105ae6103ba565b6105c2816105bc8454610510565b84610548565b6020601f8211600181146105f4575f83156105dd5750848201515b5f19600385901b1c1916600184901b17845561058c565b5f84815260208120601f198516915b828110156106235787850151825560209485019460019092019101610603565b508482101561064057868401515f19600387901b60f8161c191681555b50505050600190811b0190555056fea26469706673582212206e1ea72a39193a145c8812328a848336b8f1cd146069160446713cd3da720eb864736f6c634300081b0033",
  "linkReferences": {},
  "deployedLinkReferences": {}
}